:020000040800F2
:100000000000022059090008550900089D4D00080C
:1000100055090008550900085509000800000000AE
:10002000000000000000000000000000550900086A
:10003000550900080000000055090008214D00087E
:100040005509000855090008550900085509000818
:100050005509000855090008550900085509000808
:1000600055090008550900085509000825490008E8
:10007000314900088D3600083D490008494900080B
:100080002D050108593E00085509000855090008CA
:1000900055090008550900085509000855090008C8
:1000A00055090008550900085509000855090008B8
:1000B00045F9000851F900085DF900088D3E000877
:1000C00055090008993E000855090008B5F10008D7
:1000D000C1F10008610301088D030108C103010893
:1000E00055090008550900080000000055090008DE
:1000F0005509000855090008550900085509000868
:10010000550900085509000869F90008CDF10008F3
:10011000F5030108290401085509000855090008DC
:100120005509000855090008F1F1000825F20008FA
:10013000610501085509000855090008550900081E
:1001400000000000000000000000000000000000AF
:100150005509000855090008550900085D04010803
:10016000A53E000855090008314D0008554D00080E
:1001700055090008794D000855090008550900087F
:10018000550900085509000891040108C504010833
:10019000D9F10008E5F100085509000855090008E3
:1001A00055090008550900085509000855090008B7
:1001B000454600085509000855090008550900087A
:1001C0005509000855090008550900085509000897
:1001D0005509000855090008550900085509000887
:1001E0005509000855090008550900085509000877
:1001F0005509000855090008550900085509000867
:100200005509000855090008550900085509000856
:100210005509000855090008550900085509000846
:10022000550900085509000855090008000000009C
:10023000550900085509000800000000550900088C
:100240005509000855090008550900085509000816
:100250005509000855090008550900085509000806
:1002600055090008550900085509000855090008F6
:100270005509000855090008F904010800000000AC
:10028000550900085509000855090008000000003C
:08029000000000005509000800
:1002980010B5054C237833B9044B13B10448AFF3B8
:1002A80000800123237010BDE0030024000000003B
:1002B800883C010808B5034B1BB103490348AFF359
:1002C800008008BD00000000E4030024883C010809
:1002D80081F0004102E000BF83F0004330B54FEAEF
:1002E80041044FEA430594EA050F08BF90EA020F5C
:1002F8001FBF54EA000C55EA020C7FEA645C7FEAEF
:10030800655C00F0E2804FEA5454D4EB5555B8BF11
:100318006D420CDD2C4480EA020281EA030382EA82
:10032800000083EA010180EA020281EA0303362D14
:1003380088BF30BD11F0004F4FEA01314FF4801CE7
:100348004CEA113102D0404261EB410113F0004FF9
:100358004FEA03334CEA133302D0524263EB4303B0
:1003680094EA050F00F0A780A4F10104D5F1200E4E
:100378000DDB02FA0EFC22FA05F2801841F10001A9
:1003880003FA0EF2801843FA05F359410EE0A5F17D
:1003980020050EF1200E012A03FA0EFC28BF4CF0AE
:1003A800020C43FA05F3C01851EBE37101F0004564
:1003B80007D54FF0000EDCF1000C7EEB00006EEB71
:1003C8000101B1F5801F1BD3B1F5001F0CD34908FB
:1003D8005FEA30004FEA3C0C04F101044FEA445252
:1003E80012F5800F80F09A80BCF1004F08BF5FEAD9
:1003F800500C50F1000041EB045141EA050130BDB9
:100408005FEA4C0C404141EB0101013C28BFB1F5CA
:10041800801FE9D291F0000F04BF01460020B1FA15
:1004280081F308BF2033A3F10B03B3F120020CDAE8
:100438000C3208DD02F1140CC2F10C0201FA0CF0C6
:1004480021FA02F10CE002F11402D8BFC2F1200C2B
:1004580001FA02F120FA0CFCDCBF41EA0C019040E1
:10046800E41AA2BF01EB0451294330BD6FEA04042A
:100478001F3C1CDA0C340EDC04F11404C4F1200215
:1004880020FA04F001FA02F340EA030021FA04F327
:1004980045EA030130BDC4F10C04C4F1200220FA7E
:1004A80002F001FA04F340EA0300294630BD21FABC
:1004B80004F0294630BD94F0000F83F4801306BF82
:1004C80081F480110134013D4EE77FEA645C18BF76
:1004D8007FEA655C29D094EA050F08BF90EA020F0D
:1004E80005D054EA000C04BF1946104630BD91EA05
:1004F800030F1EBF0021002030BD5FEA545C05D108
:100508004000494128BF41F0004130BD14F5800446
:100518003CBF01F5801130BD01F0004545F0FE41BA
:1005280041F470014FF0000030BD7FEA645C1ABFEF
:10053800194610467FEA655C1CBF0B46024650EA26
:10054800013406BF52EA033591EA030F41F4002152
:1005580030BD00BF90F0000F04BF0021704730B5D8
:100568004FF4806404F132044FF000054FF00001AD
:1005780050E700BF90F0000F04BF0021704730B56E
:100588004FF4806404F1320410F0004548BF404243
:100598004FF000013EE700BF42004FEAE2014FEA98
:1005A80031014FEA02701FBF12F07F4393F07F4F73
:1005B80081F06051704732F07F4208BF704793F076
:1005C8007F4F04BF41F40021704730B54FF4607489
:1005D80001F0004521F000411CE700BF50EA01028C
:1005E80008BF704730B54FF000050AE050EA010235
:1005F80008BF704730B511F0004502D5404261EBA5
:1006080041014FF4806404F132045FEA915C3FF4E5
:10061800D8AE4FF003025FEADC0C18BF03325FEA82
:10062800DC0C18BF033202EBDC02C2F1200300FA33
:1006380003FC20FA02F001FA03FE40EA0E0021FA58
:1006480002F11444BDE600BF53B94AB9002908BFF6
:1006580000281CBF4FF0FF314FF0FF3000F074B995
:10066800ADF1080C6DE904CE00F006F8DDF804E001
:10067800DDE9022304B070472DE9F047089D0446E0
:100688008E46002B4DD18A42944669D9B2FA82F23D
:1006980052B101FA02F3C2F1200120FA01F10CFA79
:1006A80002FC41EA030E94404FEA1C48210CBEFBB1
:1006B800F8F61FFA8CF708FB16E341EA034306FB3A
:1006C80007F199420AD91CEB030306F1FF3080F0C9
:1006D8001F81994240F21C81023E63445B1AA4B216
:1006E800B3FBF8F008FB103344EA034400FB07F7B8
:1006F800A7420AD91CEB040400F1FF3380F00A81F9
:10070800A74240F207816444023840EA0640E41BED
:1007180000261DB1D4400023C5E900433146BDE899
:10072800F0878B4209D9002D00F0EF800026C5E93B
:10073800000130463146BDE8F087B3FA83F6002E53
:100748004AD18B4202D3824200F2F980841A61EBCB
:10075800030301209E46002DE0D0C5E9004EDDE7E9
:1007680002B9FFDEB2FA82F2002A40F09280A1EBD1
:100778000C014FEA1C471FFA8CFE0126200CB1FB26
:10078800F7F307FB131140EA01410EFB03F088421F
:1007980008D91CEB010103F1FF3802D2884200F2AC
:1007A800CB804346091AA4B2B1FBF7F007FB10113E
:1007B80044EA01440EFB00FEA64508D91CEB0404DC
:1007C80000F1FF3102D2A64500F2BB800846A4EB37
:1007D8000E0440EA03409CE7C6F12007B34022FA22
:1007E80007FC4CEA030C20FA07F401FA06F31C4351
:1007F800F9404FEA1C4900FA06F3B1FBF9F8200C5E
:100808001FFA8CFE09FB181140EA014108FB0EF0A3
:10081800884202FA06F20BD91CEB010108F1FF3AF3
:1008280080F08880884240F28580A8F102086144FF
:10083800091AA4B2B1FBF9F009FB101144EA01410D
:1008480000FB0EFE8E4508D91CEB010100F1FF34B8
:100858006CD28E456AD90238614440EA0840A0FB50
:100868000294A1EB0E01A142C846A64656D353D026
:100878005DB1B3EB080261EB0E0101FA07F722FA4A
:1008880006F3F1401F43C5E9007100263146BDE873
:10089800F087C2F12003D8400CFA02FC21FA03F3D6
:1008A800914001434FEA1C471FFA8CFEB3FBF7F057
:1008B80007FB10360B0C43EA064300FB0EF69E427C
:1008C80004FA02F408D91CEB030300F1FF382FD215
:1008D8009E422DD9023863449B1B89B2B3FBF7F6BD
:1008E80007FB163341EA034106FB0EF38B4208D996
:1008F8001CEB010106F1FF3816D28B4214D9023ED7
:100908006144C91A46EA004638E72E46284605E7F4
:100918000646E3E61846F8E64B45A9D2B9EB0208C5
:1009280064EB0C0E0138A3E74646EAE7204694E755
:100938004046D1E7D0467BE7023B614432E7304688
:1009480009E76444023842E7704700BFFEE700BF8A
:100958000B480C4A904203D0121A0B4912F056FD6C
:100968000A480B4A904203D0121A002112F076FD71
:1009780004F076FC12F006FD00F0EEFEFEE700BF84
:1009880000000024E0030024B83C0108E003002430
:100998004C350024704700BF704700BF70B504464F
:1009A800D0E901031D1AAA0828D0266972199042B5
:1009B80001D29E4223D32A46002112F04FFD2A4637
:1009C8000021304612F04AFDE069A46A43199C42AE
:1009D80002D2621990420AD32A46002112F03EFD43
:1009E8002A4620460021BDE8704012F037BD00229B
:1009F80040F8042B834244F8042BF8D170BD421907
:100A0800002340F8043B904246F8043BF8D1DBE76A
:100A1800704700BF704700BF70B5054682B00E46EC
:100A280002B141B3941B0F2C019411D8012C2868F2
:100A380008D1337803700023019C28686C60035543
:100A480002B070BD64B900236C60035502B070BD7C
:100A5800002201A9284612F097F8019B2860AB6094
:100A68002246314612F0D2FC019C286800236C60B3
:100A7800035502B070BD014812F07BF80837010831
:100A88002DE9F0478368551AD0F8009004460E46C1
:100A98001746A3EB0908454520D9274B9D4248D85E
:100AA80075B3284612F051F8D4F80090A36882462E
:100AB800A3EB0908B74204D031462A46504612F043
:100AC800A5FCB9F1000F03D04146484612F03BF8A7
:100AD8005544C4E900A5A560BDE8F0874368A3EBC9
:100AE800090295420ED88F4204D02A46484612F091
:100AF8009BFC63684D449D42EED06560BDE8F0877D
:100B0800AA46D7E78D18A94203D0484612F08CFCB4
:100B18006368AF42A7EB050609D018462946324656
:100B280012F082FC034633446360BDE8F087002678
:100B3800F9E7024812F020F8FCFFFF7F343701087C
:100B480010B5084CA06918B1216A091A11F0FBFF09
:100B5800606828B1E168BDE81040091A11F0F3BFD8
:100B680010BD00BF1804002470B50446D0E91A036C
:100B78001D1AAA082AD0666F7219904201D29E42A5
:100B880025D32A46002112F069FC2A460021304666
:100B980012F064FCD4F88000D4F88C4043199C42CD
:100BA80002D2621990420AD32A46002112F056FC5A
:100BB8002A4620460021BDE8704012F04FBC0022B2
:100BC80040F8042B984244F8042BF8D170BD421920
:100BD800002340F8043B904246F8043BF8D1D9E79B
:100BE80038B50446D0F8AC002D4A04F1B4032D4DB5
:100BF80022609842656604D0D4F8B410013111F02F
:100C0800A2FFD4F8980020B1D4F8A010091A11F066
:100C18009AFFD4F88C0020B1D4F89410091A11F076
:100C280092FFD4F8800020B1D4F88810091A11F086
:100C38008AFF606F18B1E16F091A11F084FFA06E86
:100C480018B1216F091A11F07EFFA06C04F150034E
:100C58002560984203D0216D013111F074FF606B5B
:100C680018B1E16B091A11F06EFFA06A18B1216B77
:100C7800091A11F068FFE06918B1616A091A11F0E0
:100C880062FF206918B1A169091A11F05CFF606858
:100C980018B1E168091A11F056FF204638BD00BFA7
:100CA800B8370108A837010870B52DED028B86B05A
:100CB800674A0446B0EE408A02AD911F6846009527
:100CC800FFF7AAFEE26CDDE900639A422BD0AE4240
:100CD80004D002993046013111F035FF5D4A68466B
:100CE8000095A2F10901FFF797FEE26CDDE90063C8
:100CF8009A4268D0AE4204D002993046013111F0D0
:100D080022FF554A68460095111FFFF785FEE26CE1
:100D1800DDE900639A424AD0AE4204D002993046D7
:100D2800013111F010FF2AB13146A06C12F05EFBC0
:100D38000028CCD1AE4204D002993046013111F0DE
:100D480002FF6168E269D1ED017AD2ED006A91EDA6
:100D5800007A66EEA77A91ED023AD2ED013AA36ADB
:100D6800E7EE087A2069D3ED004A90ED014A90ED4C
:100D7800025AD3ED015A94ED107AE3EE237A94EDFA
:100D8800116A28EE077AC2ED016A82ED008A1A68B4
:100D98005A60E4EE647AE5EE657AA6EE277AB0EE5C
:100DA800470A83ED007A06B0BDEC028B70BD2AB10C
:100DB8003146A06C12F01AFB0028ADD1AE423FD1EB
:100DC800B0EE480AEFE72AB13146A06C12F00EFBEC
:100DD80000288FD1AE4204D002993046013111F07B
:100DE800B2FE6268F0EE486A636BD2ED005AD3ED4A
:100DF800007A2169E5EEE76A93ED016AD1ED014ACF
:100E080092ED017A92ED025AC3ED017A67EE877A84
:100E1800E4EEC66AE5EEA67AC3ED006AD4ED116A7F
:100E2800B0EE677AD4ED107A28EE270AF0EE477A0A
:100E3800E6EE057AA6EEA70A06B0BDEC028B70BDF9
:100E480002993046013111F07EFEB0EE480AAAE759
:100E58006E3701087937010880370108643008B512
:100E6800FFF722FF08BD00BFF0B5354B044600254B
:100E78008DB00026082004F1480703960496C4E9BB
:100E88000035C4E90255C4E90455C4E90655C4E966
:100E9800085511F05AFE03AA00F108010346E06163
:100EA800256305960696C4E9081103CAC4E90A55DC
:100EB80018600820596011F048FE00F10802034646
:100EC800A062E56307960896C4E90B2205AA03CA3F
:100ED800C4E90D5518600820596011F036FE07AABC
:100EE8004FF07E5103466063616408332664E5640D
:100EF80084F8505009960A960B9603CA0CAA43F830
:100F0800080C201D43F8041C09A9C4E90E3304F198
:100F18005003A364FFF7B4FD09A90CAA04F110005B
:100F280009960A960B96FFF7ABFD0922054B294651
:100F380038460092E26C11F0E9FE20460DB0F0BD93
:100F4800A83701087037010870B526480125264CD6
:100F580000262DED028B84B09FED248A00F028FE38
:100F68000021204800F002FF04211E4800F02AFE5C
:100F78001C4800F023FEF0EE407A1D4B8DF8085017
:100F88008DF8095087EE880A02991A48C3ED007A4D
:100F980002F0A2F8184A334604F10C0000961168D2
:100FA8002A4602F01BFC154A334604F1200011685A
:100FB8002A46009602F012FC606B8DF80C508DF8F2
:100FC8000D5000F0FBFD80EE080A039904F13C0087
:100FD80002F082F80A4B84F84C60236504B0BDEC3B
:100FE800028B70BD88050024D8050024000040420B
:100FF800D405002478050024C0370108C437010847
:10100800C8050024F0B583B0002302AC04E906004B
:1010180004461148B0EB820FA360C4E9003318D32B
:1010280096007EB130460F4611F08FFD05463946D1
:10103800324635442060A56012F0E8F92046656024
:1010480003B0F0BD354620462660A660656003B053
:10105800F0BD024811F090FDFCFFFF7F3437010816
:101068002DE9F84FD0E900890F4692466FF06041AC
:10107800A9EB0802B1EBA20F55D093100646A7EBD7
:101088000805012B1C4638BF01241C1949D2002C25
:101098003DD1A346DAF800200BEB0503002D1A60BA
:1010A80024DCA9EB07090435B9F1000F5D4413DC12
:1010B8004D44B8F1000F04D1B460C6E900B5BDE8ED
:1010C800F88FB168A1EB0801404611F03CFDB4600F
:1010D800C6E900B5BDE8F88F284639464A464D446A
:1010E80012F094F9B8F1000FE6D0EAE7A9EB070986
:1010F8002A4641465846043512F096F9B9F1000FD0
:101108005D44E9DCB1684D44A1EB0801DCE78C42A1
:1011180028BF0C46A400204611F017FD834604445E
:10112800B8E7024CF7E7024811F026FDFCFFFF7F05
:10113800843701082DE9F04F002490F860600546D7
:101148002DED0A8B8DB0B0EE618A00940594CDE93F
:101158000144CDE90344002E43D0022E00F045811E
:10116800012E00F0C480032E00F09C81042E00F0B4
:101178001782A1462746A0463B46AE6E49466A6F8F
:1011880007F10C0C53F8040B46F8040B9C4551F876
:10119800040B42F8040BF5D1B9F1000F03D0414616
:1011A800484611F0D0FC1FB12146384611F0CBFC5F
:1011B800F7EE001A85ED2A8A039831EEC88A85ED84
:1011C800298A18B10599091A11F0BDFC009818B1BF
:1011D8000299091A11F0B7FC0DB0BDEC0A8BBDE8F5
:1011E800F08FDFEDAF7A06AFE84620EE270A80EEF3
:1011F800019AB0EE490A11F013FEF0EE408AB0EE03
:10120800490A11F09DFFF7EE007AF6EE006A3146C2
:101218003A46404630EE277A88EE879A77EEC97AC2
:1012280067EEA68ACDED068AFFF71AFFCDED068A8E
:10123800DDE901318B4200F00882E3EC018A019379
:1012480000228B42069200F0FA8143F8042B0193A6
:101258000022DDE9043106928B4200F0E98143F86F
:10126800042B0493B1EE499A99428DED069A00F049
:10127800D881A3EC019A049300228B42069200F0D5
:10128800898143F8042B0493DDE90013581A00F010
:10129800A480824B0446984200F2488211F055FC23
:1012A8000099019B0746DDE903AB581AABEB0A0628
:1012B800B046994203D00246384612F0B5F8002EDF
:1012C80000F0EA80754B9E4200F23082304611F001
:1012D8003CFC8146DDE903ABABEB0A06DA453FF49B
:1012E8004BAF32465146484612F09EF844E79FED10
:1012F8006C7AF7EE008AF6EE007A06AF20EE070A5F
:10130800E84688EEA09AC0EE019AB6EE00AB29EE48
:10131800279AB0EE690A11F013FFB0EE686AF0EE92
:10132800407AB0EE690AA9EE676AE9EE278AB7EE55
:10133800C66AB7EEE87A26EE0A6B86EE07BB11F0AE
:101348006FFD21463A464046B7EEC00A3BEE0ACB4F
:1013580020EE0C9B3CEE49CB2CEE0AABB7EECAABA9
:101368008DED06AAFFF77CFEB7EECCCBDDE90131A7
:101378008DED06CA8B4200F09D81A3EC01CA019352
:1013880099428DED06AA00F09081A3EC01AA019381
:101398004FF07E52DDE9043106928B4200F07E81E7
:1013A80043F8042B0493B8EE007B8B4229EE079B8D
:1013B800B7EEC99B8DED069A00F06981A3EC019AFE
:1013C80004933BEE0BBB9942B7EECBBB8DED06BA4F
:1013D8005DD0A3EC01BA049356E7DDE903AB0446FC
:1013E8000746ABEB0A06B04663E7DFED2D7AB6EEAB
:1013F80000AA06AFE84620EE270AC0EE018AB0EE42
:10140800680A11F00DFDF0EE409AB0EE680A11F08E
:1014180097FEF7EE007A21463A46404630EE277AA4
:1014280089EE879A79EE278A68EE8A7ACDED067A70
:10143800FFF716FE68EECA7ADDE90131CDED067ACE
:101448008B4200F01D81E3EC017A019300228B426C
:10145800069200F00F8143F8042B01930022DDE986
:10146800043106928B4200F0FE8043F8042B04936B
:10147800B1EE499A8B428DED069A00F0ED80A3EC0F
:10148800019A04930022994206927FF4FAAE3A46F2
:1014980003A8FFF7E5FDF7E6B1461FE7FCFFFF7F6E
:1014A800DB0FC9401FED027AF7EE008AF6EE007AEC
:1014B80006AF20EE070AE84688EEA09AC0EE019A29
:1014C800B6EE00BB29EE279AB0EE690A11F038FE95
:1014D800B0EE686AF0EE407AB0EE690AA9EE676A83
:1014E800E9EE278AB7EEC66AB7EEE87A26EE0B6B06
:1014F80086EE07AB11F094FC21463A464046B7EE1B
:10150800C00A3AEE0B9B20EE09CB39EE0C9B29EE74
:101518000BBBB7EECBBB8DED06BAFFF7A1FDB7EE5F
:10152800C99BDDE90131B1EE499A8B428DED069AEE
:1015380000F0CE80A3EC019A01938B428DED06BAA0
:1015480000F0D480A3EC01BA01934FF07E52DDE99C
:10155800043106928B4200F0C28043F8042B0493B6
:10156800B8EE007B99422CEE07CBB7EECCCB8DEDD5
:1015780006CA00F0A680A3EC01CA04933AEE0AABAF
:101588008B42B7EECAAB8DED06AA03D0A3EC01AA35
:10159800049379E63A46194603A8FFF761FD73E616
:1015A800634A06AF08AC111F38460694FFF734FAB1
:1015B80005F1AC00394611F041FB0698A04203D072
:1015C8000899013111F0BFFA4FF07E52DDE901317F
:1015D80006928B4200F0A38043F8042B019300226B
:1015E8008B42069200F0948043F8042B019300226A
:1015F8009942069200F0878043F8042B01934FF03C
:101608007E52DDE9043106928B4275D043F8042BF3
:1016180004930022994206921ED043F8042B0493A7
:1016280030E73A4603A8FFF71BFDDDE9043123E65E
:101638003A4603A8FFF714FDDDE9043112E63A46FD
:1016480019464046FFF70CFD02E63A464046FFF7CA
:1016580007FDDDE90131F3E53A4603A8FFF700FD90
:10166800DDE904310EE73A4603A8FFF7F9FCDDE9A6
:101678000431FDE63A4619464046FFF7F1FCEDE62F
:101688003A464046FFF7ECFCDDE90131DEE63A4632
:1016980003A8FFF7E5FCDDE9043192E63A4603A822
:1016A800FFF7DEFCDDE904317DE63A464046FFF708
:1016B800D7FC6DE63A464046FFF7D2FCDDE901313A
:1016C8005EE63A4603A8FFF7CBFCDDE9043155E7AF
:1016D8003A464046FFF7C4FCDDE901312DE73A46BA
:1016E80003A8FFF7BDFCDDE9043139E73A4619469E
:1016F8004046FFF7B5FC28E73A4603A8FFF7B0FCD9
:10170800DDE9043185E73A466846FFF7A9FC76E744
:101718003A466846FFF7A4FCDDE9013167E73A4637
:101728006846FFF79DFCDDE9013158E711F01EFA24
:1017380080370108F7EE001A0648B0EE401AB2EEFC
:10174800040AF0EE610A08B5002380F86030FFF75C
:10175800F1FC08BDB404002400B5002585B00226BC
:10176800284CFFF7F1FB8DF80D508DF80C603246D0
:101778000399201D01F0F8FC03238DF80850324628
:101788008DF8093004F11600029901F0EDFC0423EC
:10179800A06A3246E118183001F0FAFC20682946A0
:1017A800183001F019FF01462068019100F006FA8F
:1017B800DFED150A2B462A46019904F1340001F0A1
:1017C80035FC20680121183001F006FF0146206829
:1017D800019100F0F3F901992A46DFED0B0A04F1B3
:1017E80054002B4601F022FC084B93ED000AFFF74A
:1017F800A1FF074801F0DAFE0649074800F0DAF9C8
:10180800FEE700BF400400246F12033BD405002408
:10181800A005002425180008880500242DE9F047B4
:101828007E4D82B07E4C06460F469046A5F1080ACA
:1018380004F12809284601F02BFC2378042B0AD848
:10184800DFE803F0038B09755D0060EE007A67EE50
:10185800807A20EE270A636814342035D3ED007AA5
:10186800A14593ED017A37EE677AE7EE007AEAEC64
:10187800017ADFD16B4B6C4DDA6A6C4C05F13C0098
:101888001B6B2260636001F041FC95F840301BB18E
:1018980095F846307F2B6DD0237AF7EE001A64480E
:1018A800D4ED010A80F86030624B94ED000A93EDA4
:1018B800001AFFF73FFCB8F1000F1DD00024326872
:1018C8004FEA840A3B6802EB84025B4803EB840915
:1018D800013492ED000AFFF7E7F973687D68534415
:1018E80089ED000A5448554493ED000AFFF7DCF9E6
:1018F800A04585ED000AE2D102B0BDE8F087F6EE1A
:10190800007A9FED4E7AF1EE006A70EE677A27EE64
:10191800A70AF5EEC07A20EE260AF1EE10FA20EEBC
:10192800000A20EE070A96D5B1EE400A93E7F6EED4
:10193800007A9FED427AF1EE006A70EE677A27EE40
:10194800A70AF5EEC07A20EE260AF1EE10FA20EE8C
:10195800070A80D5B1EE400A7DE7B7EE007ADFEDE1
:10196800387A30EE470A30EE000A20EE270A11F0E6
:1019780073FB70E7334B196801311960B1B1012964
:101988003FD0022930D0032921D04FF0000905F1BA
:101998000C004946C3F8009085F84C9002F010F806
:1019A800494605F1200002F00BF80BE005F10C00A8
:1019B80085F84C10019102F003F8019905F1200017
:1019C80001F0FEFF2B6D95F84C201A7264E705F1C3
:1019D8000C0085F84C10012101F0F2FF012105F1FE
:1019E800200001F0EDFFEDE705F10C0085F84C1043
:1019F800002101F0E5FF012105F1200001F0E0FFE1
:101A0800E0E705F10C0085F84C1001F0D9FF002142
:101A180005F1200001F0D4FFD4E700BF74040024CE
:101A28001804002440040024D8050024C805002414
:101A3800B4040024D405002418050024333353408B
:101A48008E5D1340FC0300242DE9F0418CB0434E19
:101A58004FF00208424B06AA304604AF0693414BAA
:101A6800002500F8048B07933B463F4CCDE902283C
:101A780002AA06CAFFF7C6FA06AB357406F11800C3
:101A880004930123CDF814803375384B0693384BF3
:101A980097E80600079301ABFFF7B4FA86F82450DD
:101AA800344A2846344908AE11F048F8314A3349D7
:101AB8002046256065612562E56311F03FF83048EE
:101AC800304D2C4A30490460846211F037F82846BA
:101AD800FFF7CAF92D4B284640F8643BFFF7C4F9D5
:101AE8002B4A06A80696911FFEF796FF05F1AC0053
:101AF80006A911F0A3F80698B04203D0089901315D
:101B080011F021F81B4A002522491E4811F016F849
:101B1800184A2149214811F011F821484FF60B7352
:101B28000222204982604463124AC0E90335C0E9B1
:101B38000835C0E90044C0E90555C0E90A5510F068
:101B4800FDFF19480B4A00F1080318494560057262
:101B580003600CB0BDE8F04110F0F0BF1804002499
:101B6800000020410080BB46880500240AD7233C9A
:101B78000000204200000024490B0008A1090008C9
:101B880040040024B4040024190A0008B8370108E6
:101B98006E370108E90B00089D0900087805002444
:101BA800D80500241D0A000800040024092D010896
:101BB800704700BF143001F005BA00BF143001F0BF
:101BC800FDB900BF38B500F1140504462DED028BB0
:101BD800284601F0E5F9284601F0F0F92846B0EE6C
:101BE800408A01F0D9F9D0ED007AF8EE677A88EEEC
:101BF800277ABDEC028B84ED0E7A38BD10B540F221
:101C080003338EB000244FF60B7240F20341ADF857
:101C1800083009A80123ADF81020ADF82420224689
:101C2800ADF80C100094029907940C94CDE9054482
:101C3800CDE90A4401F0D2FD04A801232246039904
:101C4800009401F0CBFD09A801F0AEFE10B9012007
:101C58000EB010BD04A801F0A7FEA0420CBF0220E0
:101C680020460EB010BD00BF2DE9F04103239AB005
:101C78004FF0010800250746CDE91438374BCDE968
:101C8800105340F20453CDE91658ADF84830FFF729
:101C9800B5FF4045064621D0022840D040F6013223
:101CA8002F4B0BAC1895ADF82C200B98CDF8648011
:101CB800CDF84A3000F0DEF810A907F13C0002F038
:101CC800BBFE284B0FCB84E80F00FA6B214607F1C7
:101CD800140001F029F91AB0BDE8F0811023204A58
:101CE80006A906908DF828300BAC1F4BCDF84A207A
:101CF80007930295CDE91805CDE9080502A802F079
:101D0800D3F80823029A03A92046ADF80C608DF891
:101D18000E50049605930B9500F0ECF8CCE70020E4
:101D280001210F4B0BAC42460095CDF84A304FF6D7
:101D38000B730C95ADF82C302B46CDE9180140F605
:101D480001312046ADF818100699CDE90D5501F07E
:101D580045FD2946204601F033FEADE704020404A0
:101D680004060403C43601080704010B2DE9F047F3
:101D780004462DED028B82B000294DD0012140F29E
:101D8800011200230091ADF804208DF80630364A80
:101D98000127364B04F10409354904F1290862602A
:101DA80040F20272A36040F60663E16004F1250A7E
:101DB800A4F82520A4F82930278284F8277084F80D
:101DC8002B7003F003FA054603F058F869460646F7
:101DD80050BB4DB304F130008DF8067003F078F96C
:101DE800072D3CD104F114052046FFF73DFF284696
:101DF80001F0E4F82846B0EE408A01F0CDF8D0EDC5
:101E0800007AF8EE677A88EE277A84ED0E7A02B0C7
:101E1800BDEC028BBDE8F08740F2011300918DF80C
:101E28000610ADF80430B2E704F1300003F050F9C1
:101E3800072D11D04946204602F082FA0EB9002D2E
:101E4800D0D1504601F0C6FD404601F0C3FD04F173
:101E5800120000F079F9C5E7002EF2D1C2E7494631
:101E6800204602F06DFABDE70508050905070506D5
:101E7800050A060610B584B003460124ADF804002F
:101E880003A8ADF80C30ADF80E4001F0A3FD2146D3
:101E980003A801F089FE204602F0EEFF002103A806
:101EA80001F082FE204602F0E7FF214603A801F078
:101EB8007BFE04B010BD00BF10B5C2F3002384B090
:101EC8000C46017C8DF80D2043EA4402FA240223D3
:101ED8008DF80C2003AA009402F080F818B10124B0
:101EE800204604B010BD04460A2002F0C5FF204673
:101EF80004B010BD034670B543F8042B044684B003
:101F080007C983E80700A37983B91A210B461E2263
:101F1800FA2523742046ADF80C20022303AA009565
:101F280002F05CF828B1012004B070BD1B210B46FB
:101F3800EDE70A2002F0A0FF4FF4B8520095022303
:101F4800ADF80C20204603AA217C02F047F80028AF
:101F5800E9D10A2002F090FF41F2027200950223B3
:101F6800ADF80C20204603AA217C02F037F800289F
:101F7800D9D10A2002F080FF042200950223ADF88F
:101F88000C20204603AA217C02F028F80028CAD198
:101F98000A2002F071FF062200950223ADF80C20FA
:101FA800204603AA217C02F019F80028BBD10A2098
:101FB80002F062FF41F2082200950223ADF80C20DE
:101FC800204603AA217C02F009F80028ABD10A2098
:101FD800064602F051FF0095022303AA217C204601
:101FE800ADF80C6001F0FAFF00289CD1304602F0F1
:101FF80043FF009522790C232046002A8DF80C30E7
:1020080003AA4FF0020314BF622142218DF80D107C
:10201800217C01F0E3FF002885D1304602F02CFF37
:102028002279D4E902310B43DBB20AB943F0400309
:1020380062790AB143F020030E22FA258DF80D309B
:102048002046009502238DF80C2003AA217C01F07C
:10205800C5FF00287FF467AF0A2002F00DFF1022A9
:1020680000950223ADF80C20204603AA217C01F03C
:10207800B5FF00287FF457AF0A2002F0FDFE1221B9
:1020880000950223ADF80C1003AA217C204601F02C
:10209800A5FF00287FF447AF0A2002F0EDFE0122D9
:1020A80009212046FFF708FF003818BF01203BE749
:1020B800F0B5102387B0234C012200250126002704
:1020C80002A920460195CDE902234FF48052CDE9BB
:1020D80004670BF06BF9642003F01EFB02A94FF4B0
:1020E80080522046CDE9046702261027CDE9026711
:1020F8000BF05CF90322102302A92046CDE9022344
:1021080000230422CDE904234FF480520BF04EF94A
:1021180040F23223042202A9019310232046CDE97C
:102128000223019A012305924FF4805204930BF085
:102138003DF940F6060120460BF058F9284607B04D
:10214800F0BD00BF340600241C4B00221C494FF090
:10215800400C30B5054689B00220596007219A60C5
:102168001A620124DA620A224FF4006EDC600692D9
:102178002022CDE9000104200821CDE90201032035
:102188001021CDE9040108206946C3E904024FF48F
:10219800C072181DC3E906C24FF48052C3E909E2B0
:1021A8000BF0DAF838B92846FFF782FF003818BF75
:1021B800012009B030BD204609B030BD30060024EA
:1021C80040410052614A0021D0B513688EB00A918F
:1021D800002B40F0B9805E4B01214FF683700C2430
:1021E80011600221D3F8D4200026032742F480523C
:1021F800C3F8D420D3F8D42002F480520092009A75
:10220800D3F8E02042F01002C3F8E020D3F8E02031
:1022180002F010020192019AD3F8E02042F0400245
:10222800C3F8E020D3F8E02002F040020292029ABC
:10223800D3F8E02042F00802C3F8E020D3F8E02009
:1022480002F008020392039AD3F8E02042F4807265
:10225800C3F8E020D3F8E02002F480720492049AD4
:10226800D3F8E02042F08002C3F8E020D3F8E02061
:1022780002F080020592059AD3F8E02042F020028D
:10228800C3F8E020D3F8E02002F020020692069A74
:10229800D3F8E02042F00402C3F8E020D3F8E0309D
:1022A8000C9403F0040307930323079A0B93CDE9D7
:1022B800080108A9274805F0C3FB48F23712022392
:1022C80008A925480C94CDE90823CDE90A6705F04B
:1022D800B7FB4CF20372022308A920480C94CDE9FD
:1022E8000823CDE90A6705F0ABFB40F2FF62022341
:1022F80008A91B480C94CDE90823CDE90A6705F025
:102308009FFB4FF60C72022308A916480C94CDE9DE
:102318000823CDE90A6705F093FB4FF63F02022335
:1023280008A911480C94CDE90823CDE90A6705F0FE
:1023380087FB2022022308A90A480C94CDE90A67E2
:10234800CDE9082305F07CFB0EB0D0BD2C06002497
:10235800004402580010025800180258000C025895
:1023680000200258001C0258001402582DE9F04FB2
:10237800DFF8108406460D46144608F118002DEDC6
:10238800028B89B000AF02F04FFCD8F8183073B355
:10239800D8F81C30D8F80490002B43690BBF4FF0D5
:1023A800080A4FF0100A4FF0020B4FF0040BB9F176
:1023B800000F2AD0A200EA46012B02F1070222F000
:1023C8000702ADEB020D6846ADEB020D694600F061
:1023D8003F81022B00F0D680002B6FD02246C847E1
:1023E800D5462437BD46BDEC028BBDE8F08FD8F842
:1023F8001C30002BF5D0D8F804904FF0080A4FF0A5
:10240800020B4369B9F1000FD4D1FB61D8F8003051
:10241800BB61002BE5D0D54802F078FC6B46BBF1D8
:10242800020F786108EE103AFB6900F083816A4672
:102438005146A2EBC40295466200EA46B2FBFBF2A3
:10244800AAEBC40085460AEB8200EE46F861ADEBC4
:10245800010DF8690EEB820CC7F810C0EC46ADEB25
:10246800010D00EB8201CCF80400CCF8081001EB58
:1024780082013869E946CCF80C1000EB8201CCF8EF
:1024880000A001EB8202C9E900E0C9E90212012BB0
:1024980000F06483022B00F06C82002B00F0808136
:1024A800620849466046BB69984718EE103A2437D7
:1024B8009D46BD46BDEC028BBDE8F08F002C8DD04B
:1024C8001A46D8ED0C6A9FEDB27A8446331D36F968
:1024D80022E00CF1080C07EE90EA33F922E0023210
:1024E800F8EEE77A944267EE877A67EEA67A4CEDC3
:1024F800027A07EE90EAF8EEE77A67EE877A67EEF7
:10250800A67A4CED017AE2D8F9612246C847984E7E
:10251800D8ED0D6A0020F9692B1D9FED9E7A9FED7D
:102528009E6ADFED9E5A22E0F4EEC67AF1EE10FACA
:10253800C0F2C88447F6FE72D1ED017A45F8202032
:1025480066EEA77AF4EEC77AF1EE10FA40F2F08060
:10255800F4EEC67AF1EE10FAC0F2D58447F6FE72B0
:1025680043F820200230083184427FF639AFD1ED9C
:10257800007A66EEA77AF4EEC77AF1EE10FAD3D8AD
:102588003246D9E7002C3FF429AFD8ED0C6A8446CF
:102598009FED787A0022331D8E4656F822100CF1F2
:1025A800080C07EE901A53F822100232F8EEE77A78
:1025B800944267EE877A67EEA67A4CED027A07EEC8
:1025C800901AF8EEE77A67EE877A67EEA67A4CED0E
:1025D800017AE2D871462246C7F81CE0C847664E21
:1025E800D8ED0D6A0020F9692B1D9FED6A7A9FEDE1
:1025F8006A6ADFF894C120E0F4EEC67AF1EE10FAC8
:10260800C0F279843246D1ED017A45F8202066EE91
:10261800A77AF4EEC77AF1EE10FA40F28780F4EE6A
:10262800C67AF1EE10FAC0F25E84324643F82020F2
:102638000230083184427FF6D3AED1ED007A66EEDF
:10264800A77AF4EEC77AF1EE10FAD5D86246DAE73F
:10265800002C3FF4C3AED8ED0C6A86469FED477A4E
:102668004FF0000C331D56F82C200EF1080E82F4A2
:102678000002A2F5000207EE902A53F82C200CF174
:10268800020CF8EEE77A82F400026445A2F5000233
:1026980067EE877A67EEA67A4EED027A07EE902A01
:1026A800F8EEE77A67EE877A67EEA67A4EED017A5A
:1026B800D9D8F9612246C847314ED8ED0D6A0020B5
:1026C800F9692B1D9FED337A9FED336ADFF8BCC0A3
:1026D8001FE0F4EEC67AF1EE10FAC0F2FC8332463F
:1026E800D1ED017A45F8202066EEA77AF4EEC77A94
:1026F800F1EE10FA18D9F4EEC67AF1EE10FAC0F23B
:10270800DA83324643F820200230083184427FF6CB
:1027180067AED1ED007A66EEA77AF4EEC77AF1EEED
:1027280010FAD6D86246DBE76246EBE762467DE7F9
:10273800324615E7A100D6466208073121F00701A5
:10274800ADEB010DEA46ADEB010D6946ADEB0E0DA3
:102758000AEB8200EC46ADEB0E0D01EB8202F8614C
:10276800E946CCE900A0C9E9001290E684060024F5
:102778000280FFFF000000300082FF7F000000346D
:1027880082FF7F0068060024007E00807E0080FFB4
:102798000000003804FF7FBF04FF7F3F00FEFF46B4
:1027A800002C00F0C982BBF1020FD8F8242000F0F9
:1027B800FA827969C7F8049002EB810E5FED0C5A32
:1027C8008A00DCF808100EF104007A611A46DCF879
:1027D8000C303B61331DD7F810903D61FD69C7E9A6
:1027E80002CB8C46834636F92210D8ED0C7A06EED9
:1027F800101A33F9221006EE901A3EF92210B8EE9C
:10280800C66A07EE101AF8EEE66A3BF92210B8EE2F
:10281800C77A26EE256A66EEA56A27EE257A26EEA1
:10282800276A66EEA76A27EE277A07EE901A5108FC
:102838000232F8EEE77A0AEB8100944280ED006AF2
:1028480005EB810067EEA57AC0ED006A0CEB81000C
:1028580009EB810180ED007A98ED0C7A67EE877AB2
:10286800C1ED007ABFD8D7F804903D69D7E902CB0B
:1028780060466208BB6949469847D8F82C307A699F
:10288800D8ED0D6A1A441FED3D7A1FED3D6A2B1DE8
:10289800904602F1040A5FED3F5A0022A84ED9E99A
:1028A80000EC51E0F4EEC67AF1EE10FAC0F2C782FD
:1028B80047F6FE7045F822000CEB0100D0ED007AD7
:1028C80066EEA77AF4EEC77AF1EE10FA4BD9F4EE79
:1028D800C67AF1EE10FAC0F2BA8247F6FE70BBF182
:1028E800020F43F822002BD0D9F808000844D0ED95
:1028F800007A66EEA77AF4EEC77AF1EE10FA36D9C6
:10290800F4EEC67AF1EE10FAC0F2CD8247F6FE7008
:1029180048F82200D9F80C000144D1ED007A66EE9F
:10292800A77AF4EEC77AF1EE10FA1ED9F4EEC67A59
:10293800F1EE10FAC0F2AF8247F6FE714AF82210A3
:10294800023294427FF6B1AD51080EEB8100890046
:10295800D0ED007A66EEA77AF4EEC77AF1EE10FAB7
:10296800A0D83046A6E73046B9E73146E6E7304614
:10297800CEE7002C00F0E081BBF1020FD8F824303C
:1029880000F0E1817A69DCF8081003EB820EC7F8E1
:1029980004909300DFED6B5A0EF1040000227B6176
:1029A800DCF80C303B61331DD7F810903D61FD69B0
:1029B800C7E902CB8C46834656F82210D8ED0C7A2C
:1029C80007EE101A53F82210B8EEC76A07EE101A6D
:1029D8005EF82210F8EEC76A07EE101A26EE256A8E
:1029E8005BF82210B8EEC77A66EEA56A26EE276A6B
:1029F80027EE257A66EEA76A27EE277A07EE901A61
:102A080051080232F8EEE77A0AEB8100944280ED31
:102A1800006A05EB810067EEA57AC0ED006A0CEB51
:102A2800810009EB810180ED007A98ED0C7A67EE60
:102A3800877AC1ED007ABFD8D7F804903D69D7E905
:102A480002CB60466208BB6949469847D8F82C30E3
:102A58007A69D8ED0D6A1A449FED3E7A9FED3E6A79
:102A6800131D9246DFF8E4C00022FB612B1D364E91
:102A7800D9E9008E4EE0F4EEC67AF1EE10FAC0F213
:102A8800FC81304645F822000EEB0100D0ED007ABB
:102A980066EEA77AF4EEC77AF1EE10FA49D9F4EEA9
:102AA800C67AF1EE10FAC0F2EF813046BBF1020FA0
:102AB80043F822002AD0D9F808000844D0ED007A5B
:102AC80066EEA77AF4EEC77AF1EE10FA35D9F4EE8D
:102AD800C67AF1EE10FAC0F2C98130464AF82200EF
:102AE800D9F80C000144D1ED007A66EEA77AF4EE2D
:102AF800C77AF1EE10FA1ED9F4EEC67AF1EE10FAA2
:102B0800C0F2AD813146F86940F822100232944291
:102B18007FF6CBAC510808EB81008900D0ED007A34
:102B280066EEA77AF4EEC77AF1EE10FAA3D86046FB
:102B3800A8E76046BAE76146E5E76046CEE700BF2A
:102B48000280FFFF000000300082FF7F007E0080CF
:102B58000000003404FF7FBF04FF7F3F002C00F01B
:102B6800EB807A690021D8F82430C7F8109003EB7D
:102B7800820ED7F81C909300FD610EF104021FED40
:102B88000C6A7B61331D154656F821204808D8ED9C
:102B98000C6ABBF1020F82F40002A2F5000207EEF4
:102BA800902A53F8212082F40002B8EEE77AA2F5C1
:102BB800000227EE067A07EE902A0AEB8002F8EE6A
:102BC800E77A27EE267A67EE867A82ED007A09EBB5
:102BD80080024FEA800067EEA67AC2ED007A27D01D
:102BE8005EF8212082F40002A2F5000207EE902A86
:102BF80055F8212082F40002B8EEE77AA2F5000227
:102C080027EE067A07EE902ADCF80820F8EEE77A35
:102C1800024427EE267A67EE867A82ED007A98EDEE
:102C28000C7ADCF80C2067EE877A0244C2ED007A51
:102C380002318C42A8D8D7F8109060466208BB6968
:102C48004946FD699847D8F82C307A69D8ED0D6A5D
:102C58001A441FED407A1FED406A131D9246DFF8B3
:102C6800C4C20022FB612B1DAB4ED9E9008E4EE099
:102C7800F4EEC67AF1EE10FAC0F2C580304645F897
:102C880022000EEB0100D0ED007A66EEA77AF4EE92
:102C9800C77AF1EE10FA49D9F4EEC67AF1EE10FAD5
:102CA800C0F2BF803046BBF1020F43F822002AD0A1
:102CB800D9F808000844D0ED007A66EEA77AF4EE59
:102CC800C77AF1EE10FA35D9F4EEC67AF1EE10FAB9
:102CD800C0F2AE8030464AF82200D9F80C00014410
:102CE800D1ED007A66EEA77AF4EEC77AF1EE10FA23
:102CF8001ED9F4EEC67AF1EE10FAC0F28B80314696
:102D0800F86940F82210023294427FF6CEAB51089F
:102D180008EB81008900D0ED007A66EEA77AF4EE20
:102D2800C77AF1EE10FAA3D86046A8E76046BAE77A
:102D38006146E5E76046CEE7224649466046BB69FC
:102D48009847FFF7B2BBC7F810B0002298ED0C6A9D
:102D5800331DDFED726AD7F81CB0786956F8221077
:102D680007EE901A53F82210B8EEE77A07EE901A99
:102D780051080232F8EEE77A27EE267A0AEB810E3E
:102D880094420BEB810167EEA67A27EE067A67EE8E
:102D9800867A8EED007AC1ED007ADFD88300D7F805
:102DA80010B07B614DE61A46C7F810B098ED0C6A72
:102DB800331DDFED5B6AD7F81CB0786936F922104D
:102DC80007EE101A33F9221007EE901AB8EEC77AF8
:102DD80051080232F8EEE77A27EE267A0AEB810EDE
:102DE80094420BEB810167EEA67A27EE067A67EE2E
:102DF800867A8EED007AC1ED007ADFD88300D7F8A5
:102E080010B07B6134E5F0EE675AFEEEE45A15EE39
:102E1800900A34E7F0EE675AFEEEE45A15EE901A7F
:102E28006EE7F0EE675AFEEEE45A15EE900A3AE7BE
:102E3800F0EE675AFEEEE45A15EE900A4BE767EE9D
:102E4800A57AFDEEE77A17EE900A00B232E567EE52
:102E5800A57AFDEEE77A17EE900A00B23FE5F0EEAC
:102E6800675AFEEEE05A15EE901A4CE6F0EE675AF5
:102E7800FEEEE05A15EE900A30E6F0EE675AFEEEE6
:102E8800E05A15EE900AFDE5F0EE675AFEEEE05ABC
:102E980015EE900A0AE667EEA57AFDEEE77A17EED8
:102EA800901A09B24AE567EEA57AFDEEE77A17EEC1
:102EB800900A00B22CE5F0EE675AFEEEE45A15EEE1
:102EC800902A1FE467EEA57AFDEEE77A17EE902ABE
:102ED80012B2FFF731BBF0EE675AFEEEE45A15EE78
:102EE800902AFFF7FDBBF0EE675AFEEEE05A15EEAA
:102EF800902AFFF79BBBF0EE675AFEEEE05A15EEFC
:102F0800902AFFF780BB67EEA57AFDEEE77A17EE09
:102F1800902A12B2FFF724BB82FF7F000000003026
:102F2800000000387E0080FF30B5184C154685B08B
:102F3800046004F1080EEC460FC98EE80F00D4EDCA
:102F4800047AF5EEC07A8CE80F00F1EE10FA1ADD7B
:102F5800B7EE006A94ED057A27EE277AC6EE276A5F
:102F680084ED0D7AC4ED0C6A6DB1204640F8185F07
:102F780001F05AFE064903690020064A2162A2624E
:102F8800E36005B030BD012005B030BD68060024FF
:102F9800002000300000003000680830704700BF93
:102FA800B1F5807F03680A4628BF4FF48072B1F5F7
:102FB800807F9A6094BF0020012070470068183015
:102FC80001F092BE30B5046883B00D46E3694BB199
:102FD800A3680020E26A616A9B00009004F11C006B
:102FE80001F024FEA3680748A26A9B00216A0090AA
:102FF80004F1180001F01AFE0020C4E9005003B0E3
:1030080030BD00BF7523000810B4074B4FF07E5148
:1030180030240022032019619C60D8605DF8044BBD
:103028005961C3E90622704768060024F6EE007A63
:103038009FED166A20EE207A0160F7EE006A80EDB7
:10304800036A80ED020A27EE277AC6EE877AF4EE45
:10305800E67AF1EE10FA11DDF0EE667A4FF07E5165
:103068004FF0000C02760022C0ED017AC0F814C0BF
:10307800016143768276C0ED070A7047F4EEC67A9E
:10308800F1EE10FAEAD5F0EE467AE7E70000000024
:103098000268037E128807EE902AFBEEC87A1BB1FD
:1030A800B7EE007A77EE677AD0ED056A90ED047A8C
:1030B80077EEE67A437E67EE877A0BB1F1EE677AB0
:1030C80090ED030A90ED017A77EEC07AA7EE270A11
:1030D80080ED030A704700BF70B5044682B0C1F3A3
:1030E8000726CDB2ADF8041001F0C4FE4FF480728B
:1030F8004FF001232060A01DA571A280E671A36096
:1031080002B0BDE8704000F065BC00BF38B50446A9
:1031180001F0B0FE002223682271834210D0012200
:10312800A57AE37A954020602271A01D6DB243B95B
:1031380000F02CFD40B22843C0B27F28A0720AD00C
:1031480038BD00F023FDB0FA80F040092843C0B232
:103158007F28A072F4D101F08DFE07EE900AF8EEF8
:10316800677AC4ED037A38BD00B583B04FF0000E1E
:103178004FF0030C4274ADF80410BDF8043080F829
:1031880010E0A0F802C0038003B05DF804FB00BFA4
:103198002DE9F04FDFF81C8300258DB0C04C03707B
:1031A80008F140034260074601920E462022294654
:1031B8004046C4F86831C4F86481CDE90255CDE9C8
:1031C8000455CDE90655CDE90855CDE90A5510F065
:1031D80045F92022294604F5A170C4F83151C4F8F4
:1031E8003551C4F83951C4F83D5110F037F9019BF5
:1031F80084F8485284F830317A68002A6AD02B461D
:1032080004F59871454606F1100A9E46F01856F8DE
:1032180003B0E2180EF1010ED0F80CC0D0F80490FB
:10322800D0F8088044F803B0C2F80CC04FF0000C86
:10323800C2F80490C2F80880008A25F802CB1082F0
:103248001AF8032001F8012F002A70D07A684FF08D
:1032580001001233724584F84802D7D84FF480220F
:1032680090489DF8043008214FF000084FF00009FD
:10327800C4F884310023C4E95B020122C4F8743124
:1032880084F88031C4E95E2194F84812C4E964895D
:10329800A9B3C4F89821002284F8813184F88831D0
:1032A8003B78C4E96722002B38D001220020012195
:1032B800013B84F8A421C4E96C01082B30D8DFE86D
:1032C80013F0BD00C200C700CC00D100D600DB005F
:1032D800E100E8009DF804300121C4F87421C4F825
:1032E80084314FF4802384F880216E4AC4E95B233B
:1032F80008230022C4E95E130023C4E964230123E0
:10330800002284F88131002384F888310323C4F82B
:1033180098313B78C4E96722002BC6D184F8A431E0
:10332800614802F05DFE034638B1FFBEFEE77A68E9
:10333800123372453FF66AAF90E702A95A480293E2
:1033480002F0AEFF8246002876D1042240F2FF71D7
:103358000A90CDE9081294F83021002A00F0F38091
:103368004FF006080AEBCA034FEACA0904EB430305
:103378005B7C072B07D8DFE803F0595C5653504DA8
:103388004A04072307930FFA8AF6D14406EBC606C8
:1033980004EB490904EB46077500384600F01AFBB0
:1033A80099F81030042B00F3AA80022B00F3BD809B
:1033B80000F0B98004EB0A03002283F8202114F8F6
:1033C8001630002B78D0022B00F08A80012B40F0B9
:1033D800B2807B78012B00F0B080002B334B18BFF4
:1033E800002305A93048CDE9053802F0F9F900288D
:1033F80040F0AC800AF1010A94F830315FFA8AFA99
:10340800534540F2A0802A4B53F82A80AAE70623A6
:103418000793B8E705230793B5E704230793B2E7B3
:1034280003230793AFE702230793ACE7002307932F
:10343800A9E701230793A6E7FFBEFEE7032240237F
:10344800C4E96A236CE707226023C4E96A2367E7B3
:103458000F228023C4E96A2362E71F22A023C4E95C
:103468006A235DE73F22C023C4E96A2358E77F2225
:10347800E023C4E96A2353E7FF224FF48073C4E9C9
:103488006A234DE740F2FF124FF49073C4E96A23B0
:1034980046E740F2FF324FF4A073C4E96A233FE7DE
:1034A800A0060024002002400C0800240002B025D9
:1034B800C8370108004000307B78062B37D0072B2F
:1034C8003DD0022B4AD0032B4AD0002B4CD0012BE5
:1034D80048D0042B4AD0052B254B18BF002380E782
:1034E8007B78042B25D0052B2BD08BB3012B31D027
:1034F800022B31D0032B1F4B18BF002371E7032386
:10350800043504EB0A0B4FF0000925448BF82031F1
:10351800284609F1010900F05DFA9BF820310435CD
:103528004B45F5DC4BE70123EAE70223E8E7124BBA
:1035380057E7124B55E7002353E7114B51E7114B5F
:103548004FE7114B4DE70DB0BDE8F08FFFBEFEE72A
:103558000E4B46E70E4B44E70E4B42E70E4B40E757
:103568000E4B3EE70E4B3CE70E4B3AE70E4B38E767
:103578000000B84F002090360800900C1000C010D2
:103588002000F0148000501D000180210004002A52
:103598000008302E001060320040C03A0080F03E33
:1035A80000005247000021430000844B38B5094C05
:1035B80040F2FF724FF0011104F5B675284602F08B
:1035C8001DFE94F83021D4F864112846BDE838402F
:1035D80002F07CBBA0060024034B0F29D3F864013A
:1035E80098BF00EB41007047A0060024214B0268F9
:1035F8009A4200D07047204A00232048D2F8D810B9
:1036080030B51F4C41F0200183B0C4F8D001092027
:1036180004F5E875C4E975034FF48060C2F8D81062
:10362800D2F8D8204FF40061C4E9773094F8480202
:1036380002F02002C4F8E4114FF4005198420192BC
:103648002846C4F8E811C4E97C33019B14BF002361
:103658004FF48073C4F8EC3103F04EF808B1FFBEA4
:10366800FEE704F5B673C4F8B851C4F8083203B0DD
:1036780030BD00BF00200240004402584000024014
:10368800A0060024014803F089BE00BF700800248A
:1036980002682DE9F84F4B4B9A4201D0BDE8F88FEC
:1036A800494D95F84832002BF8D095F83031002B69
:1036B80077D0002405F10C0905F5A17605F5987772
:1036C800A04613E003F0010117F811BCA9F10800A6
:1036D80000F06AFABBF1010F25D895F830310134B2
:1036E80009F112090236A2B293422BD917F8012F19
:1036F800002AF4D0D5F864310021327833F8140068
:10370800D5F8683103EB041323F81200338801332A
:103718009BB233805FFA83FA3A789A42D2D88A46C3
:10372800A6F80080D0E7CAF34001A9F1040000F030
:103738003BFABBF1020FCAF38001CED0484600F035
:1037480033FACAE7002395F848022049092298422B
:10375800C5F8D8314FF48060C5F8D011C5F8D42128
:103768004FF400614FF40052C5F8DC3108BF4FF444
:103778008073C5F8E821C5E9780100221448C5E935
:103788007B32C5F8F42102F0B7FF08B1FFBEFEE7AF
:1037980095F83021D5F864110E48BDE8F84F02F0CD
:1037A80095BA0A4909224FF48060C5F8D831C5E9AD
:1037B80074124FF400614FF40052C5E97730C5E93F
:1037C8007912DAE700200240A006002440000240F7
:1037D800700800240C080024704700BF10B592B090
:1037E800ADF804100180C9B2149C0B29C460C0E96B
:1037F80001233FD090F801C0BCF10F0F3AD8022A3C
:103808003FD0032A02D0012A00D000220E92012BB9
:1038180002D0022B18BF0023022C0F932CD0032CAC
:103828002AD0012C28D000230A29109327D85C4AD3
:1038380002EB812202610A2914D8DFE801F0A3957E
:1038480087796B5D4F4133250600564BD3F8E0105E
:1038580041F48061C3F8E010D3F8E03003F48063EA
:103868000C930C9B01230DA9104603FA0CF30D933E
:1038780004F0E6F812B010BD0A291094D7D9002236
:10388800D8E711220E92C2E7464BD3F8E01041F474
:103898000071C3F8E010D3F8E03003F400730B9321
:1038A8000B9BDFE73F4BD3F8E01041F48071C3F87E
:1038B800E010D3F8E03003F480730A930A9BD1E751
:1038C800384BD3F8E01041F08001C3F8E010D3F88A
:1038D800E03003F080030993099BC3E7314BD3F829
:1038E800E01041F04001C3F8E010D3F8E03003F0F5
:1038F80040030893089BB5E72A4BD3F8E01041F042
:103908002001C3F8E010D3F8E03003F02003079358
:10391800079BA7E7234BD3F8E01041F01001C3F849
:10392800E010D3F8E03003F010030693069B99E704
:103938001C4BD3F8E01041F00801C3F8E010D3F8AD
:10394800E03003F008030593059B8BE7154BD3F88C
:10395800E01041F00401C3F8E010D3F8E03003F0C0
:1039680004030493049B7DE70E4BD3F8E01041F069
:103978000201C3F8E010D3F8E03003F00203039328
:10398800039B6FE7074BD3F8E01041F00101C3F840
:10399800E010D3F8E03003F001030293029B61E7E3
:1039A800000002580044025808B501214378006914
:1039B800994089B204F046FA003818BF012008BDC2
:1039C80001230A464178006903FA01F189B204F03B
:1039D8003FBA00BF8378022B30B504468FB037D08A
:1039E800032B33D0012B31D000230A93E378012B2A
:1039F8002AD0022B28D000230B93002320460C93B7
:103A080001F068FD0546204601F06CFD2378099019
:103A1800082B13D8DFE803F01F3245586B7E91A4BA
:103A28000500594BD3F8E02042F48072C3F8E02037
:103A3800D3F8E03003F480730893089B09A928465B
:103A480003F0FEFF0FB030BD0B93D6E70A93CDE726
:103A580011230A93CAE74C4B09A92846D3F8E0205A
:103A680042F00102C3F8E020D3F8E03003F001038C
:103A78000093009B03F0E4FF0FB030BD424B09A94F
:103A88002846D3F8E02042F00202C3F8E020D3F839
:103A9800E03003F002030193019B03F0D1FF0FB064
:103AA80030BD394B09A92846D3F8E02042F004027A
:103AB800C3F8E020D3F8E03003F004030293029B3C
:103AC80003F0BEFF0FB030BD2F4B09A92846D3F82D
:103AD800E02042F00802C3F8E020D3F8E03003F019
:103AE80008030393039B03F0ABFF0FB030BD264BD5
:103AF80009A92846D3F8E02042F01002C3F8E020D4
:103B0800D3F8E03003F010030493049B03F098FF0C
:103B18000FB030BD1C4B09A92846D3F8E02042F06D
:103B28002002C3F8E020D3F8E03003F02003059327
:103B3800059B03F085FF0FB030BD134B09A928463C
:103B4800D3F8E02042F04002C3F8E020D3F8E03098
:103B580003F040030693069B03F072FF0FB030BDDD
:103B6800094B09A92846D3F8E02042F08002C3F89F
:103B7800E020D3F8E03003F080030793079B03F0BD
:103B88005FFF0FB030BD00BF0044025838B505468E
:103B980001F0A0FC0446284601F0A4FC014620469A
:103BA800BDE8384004F04EB970B506460D4601F040
:103BB80091FC0446304601F095FC2A1E0146204639
:103BC80018BF0122BDE8704004F042B90023122258
:103BD80070B586B0CDE9022304930368032B01D89E
:103BE80004230593061D841D304601F073FC054629
:103BF800304601F077FC034601A92846019303F0FB
:103C08001FFF204601F066FC034620461C4601F0D3
:103C180069FC01A903462046019303F011FF06B091
:103C280070BD00BF634A0368934210B58CB028D0BA
:103C3800614A934258D0614A934200F09480604AA6
:103C4800934201D00CB010BD5E4C5F48D4F8E03010
:103C580043F00203C4F8E030D4F8E03003F0020384
:103C68000A930A9BFFF7B2FFD4F8F43043F08003BD
:103C7800C4F8F430D4F8F43003F080030B930B9BB2
:103C8800E0E7504C5148D4F8E03043F00203C4F860
:103C9800E030D4F8E03003F002030193019BFFF712
:103CA80095FFD4F8E83000221F2043F40013114692
:103CB800C4F8E830D4F8E83003F400130293029B08
:103CC800D4F8D83043F00103C4F8D830D4F8D83049
:103CD80003F001030393039B02F05CFB1F200CB06D
:103CE800BDE8104002F094BB364C3948D4F8E030B7
:103CF80043F08003C4F8E030D4F8E03003F08003E8
:103D08000493049BD4F8E03043F00203C4F8E03095
:103D1800D4F8E03003F002030593059BFFF756FF44
:103D2800D4F8E8300022212043F480031146C4F877
:103D3800E830D4F8E83003F480030693069BD4F8FF
:103D4800D83043F00103C4F8D830D4F8D83003F0A1
:103D580001030793079B02F01DFB21200CB0BDE86F
:103D6800104002F055BB1B48FFF730FF154B0022EF
:103D78004820D3F8E840114644F40004C3F8E8406A
:103D8800D3F8E84004F400040894089CD3F8D84019
:103D980044F00104C3F8D840D3F8D83003F0010345
:103DA8000993099B02F0F6FA48200CB0BDE81040D0
:103DB80002F02EBB0054004000580040005C004058
:103DC800001C005800440258900B0024F0080024FE
:103DD800D0090024B00A00242DE9F0431A4B87B01B
:103DE80000254FF010099E46EC46184BFF22E0468E
:103DF80067461A700EF118060EF13004CDE9005529
:103E0800CDE90255ADF80090BCE80F00CDE90455A6
:103E1800AEE80F009CE803000095ADF800908EE82E
:103E28000300B8E80F000FC69CE803000095ADF842
:103E3800009086E803000FCF0FC49CE8030084E8D5
:103E4800030007B0BDE8F08304000024EC08002458
:103E580010B5EFF3108472B6084B1A78120602D523
:103E680004B962B610BD1878054B40B2C0EBC0006B
:103E780003EB4010143003F091FAF1E7EC0800244A
:103E8800F0080024014805F01DB900BF7C09002492
:103E9800014805F017B900BF5C0A0024014805F085
:103EA80011B900BF3C0B00242DE9F0470C6884B021
:103EB800414DC4EBC403032C4FEA431705EB4313EE
:103EC800036043DCCB680E46012B3FD84FEAC40899
:103ED8004ED0A8EB0409B646DFF8FCA005EB49195B
:103EE800BEE80F00CC46ACE80F00DEF800300DF15C
:103EF800100ECCF80030D9F808C09AE80F000EE987
:103F08000F000EEB8403BCF1010F53F8103CC9F805
:103F18008C3032D0BCF1020F43D0BCF1000F36D048
:103F2800327C8C37A8EB040400232F44520005EBA5
:103F3800441501213846C5F8AC30C5E92521C5E945
:103F48002733C5E9293304F07FFD18B1012004B0F7
:103F5800BDE8F0870146384605F0C0F80028F5D1DD
:103F68000146384605F0E4F8003818BF0120EEE7AE
:103F78000B7C103B672BACD9E8E701F025F90F4B18
:103F880098420CBF0E4B0F4BC9F89030C8E701F0B0
:103F98001BF90A4B98420CBF0B4B0C4BC9F89030DD
:103FA800BEE701F011F9054B98420CBF084B094BCD
:103FB800C9F89030B4E700BFF0080024000E2707C6
:103FC8002D0FB0303211D0205F4390608A62E0300C
:103FD800200BA0101A098010D43601082DE9F041F1
:103FE800D0F8008082B00D4617461E4608F18C04B2
:103FF800204605F06FF82028FAD1D8F80C3073B9AC
:104008006D002046089C33463A46A9B2009404F055
:1040180071FD003818BF012002B0BDE8F081089B8F
:1040280032463946204604F023FFF2E7044B1022BB
:104038001A7483F8F02083F8D02183F8B0227047EF
:10404800F008002430B5002395B04FF480710622A3
:1040580004460B9306921393CDE90C13CDE90E3366
:10406800CDE9113301F0B2F807282BD004F110057F
:1040780041F2883206A9284606F098F828B10123AB
:10408800184684F85C3015B030BD0222022306A918
:104098002846CDE9002310220123CDE9022300227E
:1040A8004FF48003CDE9042305224FF08073069274
:1040B8006A460F9341F2883306F0E4F90028DED10E
:1040C80015B030BD0323012084F85C3015B030BD35
:1040D80070B50023A4B04FF080724FF48075044689
:1040E800ADF806300D93CDE910320122CDE90E531B
:1040F800CDE91223CDE91433002943D0F02300F190
:10410800100508AEADF80630C02341F288323146BA
:104118002846089306F04AF828B10123184684F87F
:104128005C3024B070BD41F288320DF1060128469A
:1041380006F0A6F803460028EFD105224FF4807157
:104148001E93284616924FF080721B9321931F925C
:1041580002AA9FED1F7BCDE91C13CDE922338DED1B
:10416800027B9FED1D7B41F2883316A98DED047B00
:104178009FED1B7B8DED067B06F084F90028CCD1E2
:1041880024B070BD00F1100508AE612341F28832F9
:1041980031462846089306F009F80028BDD141F2B7
:1041A80088320DF10601284606F0E8F80028B4D157
:1041B800BDF80630204623F0780343F04003ADF8FD
:1041C8000630FFF73FFF00289ED0A6E7AFF3008038
:1041D80000000000010000001000000001000000C5
:1041E80000000000000040002DE9F04F00234FF4CC
:1041F800807501264FF0807804462DED028BABB018
:104208008DF8073013932193299314950E96CDF8C2
:104218005C80CDE91533CDE91863CDE91A33CDE9D2
:104228002253CDE92433CDE9273306231C9300F02C
:10423800CDFF072808D004F1100741F288321CA9E5
:10424800384605F0B3FF40B10123184684F85C30C6
:104258002BB0BDEC028BBDE8F08F4FF0020A4FF097
:10426800020B4FF0050941F2883308AA1CA9384609
:10427800CDF89480CDF870909FED2D8BCDE908ABEB
:104288004FF0000A4FF4800B8DED0A8BCDE90CAB93
:1042980006F0F8F80028D7D141F2883238460EA93E
:1042A80005F084FF0028CFD1402341F288320DF178
:1042B800070138468DF8073005F0E2FF0028C3D122
:1042C80041F288330EA902AA3846CDF83890CDF8C5
:1042D8005C809FED197B8DED048BCDE906AB8DEDF0
:1042E800027B06F0CFF803460028ADD1CDF87090D8
:1042F8004FF00109CDF894804FF00008219308AAE7
:1043080029931CA938462295CDE92333CDE92733D3
:1043180041F288338DED0A8BCDE90CABCDE90889E4
:1043280006F0B0F8002893D0304684F85C608FE738
:1043380010000000010000004000000040000000E4
:10434800F0B55F4CA3B00D46046000F03FFF0728AE
:1043580044D028682346AA68696807C3AA8918460A
:1043680020F8042B257B667B05F00EFF80BB554AA1
:10437800012DE06122614FF0010214BF4FF4801358
:104388004FF4000393FAA3F3C4E90522002B00F0CD
:104398008880B3FA83F3013B00224FF480774A48C0
:1043A800C4E90837C4E90B2205F092FE80B96623F8
:1043B8000B90139041F2883206A90693CDE90C7050
:1043C800CDE90E00CDE911003F4805F0EFFE58B1E8
:1043D8000123184684F85C3023B0F0BD0323012084
:1043E80084F85C3023B0F0BD992341F2883206A9E5
:1043F8003548069305F0DAFE0028E9D105231C901C
:1044080019906A4614934FF08073219014A91D9354
:1044180041F288339FED247BCDE91A70CDE91F0066
:104428008DED007B9FED227B27488DED027B9FED74
:10443800227B8DED047B06F025F80028C8D129469B
:104448001F48FFF745FE0028C2D11D48FFF7CCFEE4
:104458000028BDD1002EBFD11890EB2300261A9753
:1044680014934FF44063002706AA1B934FF440436C
:1044780014A91C930623CDE91F004FF0805019930F
:1044880021904FF040701D904FF400501790A020DD
:1044980016900D48CDE9066706F06CF800289BD009
:1044A80096E71F2378E700BF000000000100000026
:1044B80010000000010000000000000000004000A3
:1044C800700C002400500052800C00242DE9F04F9D
:1044D8008FB0414B0024026800AF9A427C63C7E961
:1044E8000944C7E90B4403D03C37BD46BDE8F08F0B
:1044F8003A4B40F609213A48EB46D3F8D42007F165
:104508001C0607F1220A4FF0020942F480424FF0DC
:104518000308C3F8D420D3F8D42002F48042BA6048
:10452800BA68D3F8E02042F04002C3F8E020D3F89C
:10453800E02002F04002FA60FA68D3F8E02042F086
:104548002002C3F8E020D3F8E02002F020023A610C
:104558003A69D3F8E02042F01002C3F8E020D3F81B
:10456800E02002F010027A617A69D3F8E02042F084
:104578000202C3F8E020D3F8E030F86103F0020348
:104588003984BB61174B7B60BB697B6853F8040FA8
:104598007B6000F09FFF7B680546186800F0A2FF6B
:1045A80016F8013B786207F124012846C7F83080E5
:1045B8007B63C7E90A9403F043FA5645E5D1002224
:1045C8005C20114601F0E6FE5C2001F021FF3C373B
:1045D800DD46BD46BDE8F08F005000520044025849
:1045E8000A0A0909CC0C0024114B02689A4200D02F
:1045F8007047104A70B5D2F8D4300F4C23F480437A
:1046080004F11806C2F8D43054F8040F00F062FF21
:104618000546206800F066FF0146284603F04AFB7D
:10462800B442F1D15C20BDE8704001F0FFBE00BF8C
:104638000050005200440258CC0C0024014806F0F7
:1046480025B800BF800C0024084B1A1D981D03F1E3
:10465800080110B49C1C9A6603F10A02C3E91834D5
:10466800C3E91B015DF8044B5A677047700C0024BE
:1046780038B5036871B9026A00F1280500F5AC7411
:10468800012A0CBF002140218BBB1D4B5722C0F8CB
:1046980058310DE0426A00F1C00500F5E874012ABE
:1046A8000CBF00214021EBB1164B5A22C0F8D03183
:1046B80000232046C4E901214FF480524FF4806161
:1046C800636262614FF48042C4E903314FF480733E
:1046D800C4E906234FF40033236202F00DF858B101
:1046E800FFBEFEE7084B5822C0F8D031E0E7074B81
:1046F8005922C0F85831DBE7C5E92044A56338BD25
:104708001000024070000240280002405800024099
:104718002DE9F043821D05468BB0031D05F10A0102
:104728000830CDE9052305F10C02AB69CDE9070195
:104738000992002B3DD0EB69B3FA83F84FEA581879
:104748000123022205AE0AAF4FF006090393CDE913
:10475800012356F8044B2B792278934216D02B6804
:10476800F3B1012B02D1F2B10A230493204600F0E1
:10477800B9FE03462046009300F0ACFE694603F0FC
:104788005FF9BE42E5D10BB0BDE8F0836979637883
:104798009942E4D1B8F1000FF3D02B68002BE0D197
:1047A800CDF81090E2E76378022B14BF0A230823A0
:1047B800DBE74FF00108C3E7534A0368934230B57B
:1047C80005468BB055D02032934252D04F4A93427F
:1047D80004D02032934201D00BB030BD4C4C4D4830
:1047E800D4F8E03043F00103C4F8E030D4F8E03006
:1047F80003F001030593059BD4F8E03043F0080368
:10480800C4F8E030D4F8E03003F008030693069BC0
:10481800D4F8E03043F04003C4F8E030D4F8E03096
:1048280003F040030793079BD4F8F03043F40003E8
:10483800C4F8F030D4F8F03003F400030893089B70
:10484800FFF766FFD4F8D830296843F001032F4AF0
:104858003048C4F8D830891AD4F8D83018BF0121A4
:1048680003F001030993099B0BB0BDE83040FFF743
:10487800FFBE274C2848D4F8E03043F00103C4F8C1
:10488800E030D4F8E03003F001030093009BD4F843
:10489800E03043F01003C4F8E030D4F8E03003F01F
:1048A80010030193019BD4F8E03043F04003C4F8AF
:1048B800E030D4F8E03003F040030293029BD4F8D0
:1048C800F03043F48003C4F8F030D4F8F03003F447
:1048D80080030393039BFFF71BFFD4F8D8302968A4
:1048E80043F00103084A0C48C4F8D830891AD4F8B0
:1048F800D83018BF012103F001030493049B0BB0C7
:10490800BDE83040FFF7B4BE04580140045C0140E4
:1049180000440258440F0024E80C0024014802F027
:104928003DBD00BF400E0024014802F037BD00BF66
:10493800B80E0024014802F031BD00BF9C100024CD
:10494800014802F02BBD00BF141100241A4A036865
:10495800934210B40BD02032934208D0174A9342A6
:1049680016D02032934213D05DF8044B7047144B95
:104978000022D3F85442C3F85822002CF4D0D3F8BC
:104988004802D3E9931223465DF8044B52081847AE
:104998000B4B0022D3F8B044C3F8B424002CE3D066
:1049A800D3F8AC24D3F8A814D3F8A40452082346A7
:1049B8005DF8044B184700BF04580140045C0140EF
:1049C800E80C0024184A0368934210B40BD0203234
:1049D800934208D0154A934217D02032934214D0FC
:1049E8005DF8044B7047124BD3E994245208C3F87E
:1049F8005822002CF4D0D3E99201234601EB82011E
:104A080000EB82005DF8044B1847094BD3F8AC243F
:104A1800D3F8B0445208C3F8B424002CE0D0D3F83B
:104A2800A814D3F8A404E8E704580140045C014042
:104A3800E80C0024000000002DE9F04F0C684FF44A
:104A48001776754F87B004FB06F6012C07EB060AAC
:104A5800C0F800A000F3A0800D468E464FF0000875
:104A6800D44669A3D3E9002369A1D1E90001CDE9BE
:104A7800022306ABCAF8508203EB8403CDE9040194
:104A880053F810BC53F8083CCAE992880193BEE871
:104A98000F00ACE80F00BEE80F00ACE80F00019B68
:104AA8009EE80300CAF828B0CAF8C0308CE80300B2
:104AB8002B69042B0CD8DFE803F0737D8791030082
:104AC8004FF41773554A03FB04739A64C3F8E02044
:104AD800AA692B6A002A43D0002B4FF4177308BF2A
:104AE800022203FB047318BF0322DA6201221A634D
:104AF800EA696B6A002A40D1191E4FF4177318BF70
:104B0800012103FB0473C3E931126B69022B05D839
:104B1800434A12F80380434A52F823904FF417731C
:104B280006F128004246494603FB04740023384432
:104B380063646363E365C4F8DC30C4F8CC30C4F85C
:104B4800F430C4E90F33C4E91533C4E93533C4E993
:104B58003B33022308F0A0F9002849D0FFBEFEE746
:104B6800191E4FF4177318BF012103FB0473C3E91F
:104B78000B12EA696B6A002ABED0002B4FF4177338
:104B880008BF022203FB047318BF0322C3F8C42022
:104B98000122C3F8C820B8E7012007B0BDE8F08FAC
:104BA8004FF417734FF4FA5203FB04739A64C3F873
:104BB800E0208DE74FF417734FF47A5203FB047328
:104BC8009A64C3F8E02083E74FF417734FF4FA426E
:104BD80003FB04739A64C3F8E02079E74FF4177372
:104BE8004BF6803203FB04739A64C3F8E0206FE746
:104BF80006F1C000022342464946384408F04CF901
:104C08000028CAD0FFBEFEE704580140045C0140FA
:104C180024580140245C0140E80C0024007701007E
:104C2800083801080C3801080068704770B5046836
:104C380082B015460E46C4F85032C4E99212069A5C
:104C4800C4F85422A269012A26D0626A012A9AB2BB
:104C580011D0294604F1C000019208F0D7F9236A5F
:104C6800019A012B10D0294604F1280008F0CEF94A
:104C7800002002B070BD04F1C000019208F058FA9B
:104C8800236A019A012BEED1314604F1280008F07D
:104C98004FFA002002B070BD226A012A9AB211D0E0
:104CA800294604F12800019208F0B0F9636A019AD4
:104CB800012B10D0294604F1C00008F0A7F9002004
:104CC80002B070BD04F12800019208F031FA636A5D
:104CD800019A012BEED1314604F1C00008F028FA00
:104CE800002002B070BD00BF03681B69042B05D803
:104CF800044A02EB830393ED000A70479FED020A12
:104D0800704700BF1838010800803B470368D3F894
:104D180058027047704700BF08B500F0EBFCBDE8CB
:104D2800084001F0FFBB00BF064808B503680BB197
:104D380003F092F8044803681BB1BDE8084004F08A
:104D480023BA08BDB8160024A8110024064808B5DF
:104D580003680BB103F080F8044803681BB1BDE891
:104D6800084004F011BA08BDB8160024A8110024A0
:104D7800064808B503680BB103F06EF804480368E9
:104D88001BB1BDE8084004F0FFB908BDB8160024FF
:104D9800A8110024364BDA6A520062D59A6A9A6AD8
:104DA8009A6A9B6A180600D500BE314B9B6A990621
:104DB80000D500BE2E4B9B6ADA0600D500BE2C4BF0
:104DC8009B6A1B0700D500BE294B9B6A980700D534
:104DD80000BE274B9B6AD90700D500BE244B9B6AAF
:104DE8001A0400D500BE224B9B6A9B0400D500BE66
:104DF8001F4B9B6AD80400D500BE1D4B9B6A190542
:104E080000D500BE1A4B9B6A5A0500D500BE184B48
:104E18009B6A9B0500D500BE154B9B6AD80500D53B
:104E280000BE134B9B6A990100D500BE104B9B6ACC
:104E3800DA0100D500BE0E4B9B6A1B0300D500BEED
:104E48000B4B9B6A580300D500BE094B9B6A99031C
:104E580000D500BE064B9B6ADA0306D400BE00BE2E
:104E6800FEE7DB6A9B07FAD5F8E700BEF6E700BF66
:104E780000ED00E000F04ABC00F04EBC0A4B9B6815
:104E880003F17843B3F5003F0BD3084B986848B15A
:104E98009868012806D09868022803D09B680320E8
:104EA80070470120704700BF00ED00E00000803827
:104EB8002DE9F041CEB004464C2200210AA80EF09C
:104EC800CDFA2022002102A80EF0C8FAC022002143
:104ED8001EA80EF0C3FA022005F014F82368012B6F
:104EE8004FF0000354D0584A02250193C820D16AD4
:104EF800564B21F00101D162D26A02F001020192FF
:104F08009A6942F440429A619B6903F440430193D1
:104F1800019B4E4A93699B04FCD54D49022400220B
:104F280001268B6A04274FF0080823F00303234364
:104F38008B62052316900AA818934FF480331096B5
:104F4800179419941597CDF86880CDE91B22212272
:104F5800CDE91344CDE90A2305F038FD00B1FEE799
:104F68003F220323294602A8CDE902230022082371
:104F7800CDE9042340224023CDE9062340234FF402
:104F88008062CDE9082306F0BBF80346B8B1FEE716
:104F98002E4A04250093F02091692B4B41F440419F
:104FA8009161926902F440420092DA6A42F0010289
:104FB800DA62DB6A03F001030093009BA9E7202271
:104FC80026932E9380212C924FF4805231930625FC
:104FD8003F931EA8279236924FF4803225914FF4C2
:104FE8004011329247920022289580254091102145
:104FF800CDF888802B9720962A91CDE92F3440F25E
:10500800271329934FF480632D930023CDE923467A
:10501800CDE93C234FF480740C234494022421935B
:1050280007A3D3E90023CDE93445CDE91E2306F0D3
:1050380053FB00B1FEE704F089FF4EB0BDE8F081F4
:105048000F130F0300000000000400580048025826
:105058000044025870B584B0012401F011FA4FF4ED
:1050680080764FF04052194B68460025ADF8004055
:105078000396CDE9012301F021FA19224FF04043AC
:1050880068468DF8082001938DF80F40ADF80D6043
:105098008DF801408DF80A5001F010FA02230B2216
:1050A80068468DF80F508DF801304FF062538DF837
:1050B80008200193ADF80D408DF80A4001F0FEF983
:1050C800042001F0EBF904B070BD00BF0E0001032D
:1050D80030B50D46044685B0D1E9000184E80300E7
:1050E80000F0D8FAAB79002B63D00BF0B5FBFEF7D4
:1050F80073FE0AF01BF80BF0A7F82B795BB3304C62
:10510800636913F4803326D1C4F88430BFF34F8F1A
:10511800D4F8801043F6E07EC1F34E3CC1F3C901D8
:105128004FEA4C1C0CEA0E000B4640EA8372013B26
:10513800C4F860225A1CF8D1ACF1200C1CF1200FE5
:10514800F0D1BFF34F8F636943F480336361BFF3DA
:105158004F8FBFF36F8F6B79B3B1194A536913F44B
:10516800003311D1BFF34F8FBFF36F8FC2F85032A6
:10517800BFF34F8FBFF36F8F536943F4003353610D
:10518800BFF34F8FBFF36F8F4FF0FF320023002420
:10519800002569460B4802928DF80C30CDE9004590
:1051A8000AF0E4FB07480AF049FC09F0EFFB05B0F8
:1051B80030BD2046FFF77CFE2046FFF74BFF94E703
:1051C80000ED00E0A011002406F002B91C4B9B681A
:1051D80003F17842B2F5003F25D3B3F5803F20D3E1
:1051E80003F16042B2F5003F1FD303F15C42B2F510
:1051F800002F1CD303F17042B2F5902F19D303F19D
:105208004842B2F5803F16D303F18042B2F1806F75
:1052180013D303F1E043B3F5000F2CBF0820072098
:105228007047012070470020704702207047032014
:10523800704704207047052070470620704700BF5C
:1052480000ED00E003480023034A044903600DF021
:1052580075BC00BFA0110024000000241D4D0008EB
:1052680010B4204C0022204B83B0D4F888101F487B
:1052780041F47001C4F8881019681D4C41F001010F
:1052880019601A61196808401A4918609A61DA6148
:105298001A629A62DA621A635A639A63DA631A6460
:1052A8005A64186820F4802018601A66D3F8DC2045
:1052B80042F06042C3F8DC20D3F8DC300193019B54
:1052C80023681940B1F1005F03D20B4B0122C3F8E8
:1052D8000821044B4FF000629A6003B05DF8044B5C
:1052E800704700BF00ED00E0004402587FEDF6EA89
:1052F8000010005C0000FFFF0080005100F2C44174
:10530800D0F8080508F0A8BE01EBC10300EB830341
:10531800D0F80805D3F8882208F0CEBE01EBC10307
:1053280000EB8303D0F808059A6C08F0FFBE00BFB5
:10533800D0F8080508F0A8BF016910B5044619B1EE
:10534800022900D0FEE70121D4F8080508F07CFF07
:10535800D4F80805BDE8104008F048BF10B5044669
:10536800D0F8080508F074FF2268D2F8003E43F030
:105378000103C2F8003E236A23B1034A136943F0CC
:105388000603136110BD00BF00ED00E0D0F808056A
:1053980008F06EBFD0F8080508F09CBFD0F80805E3
:1053A80008F082BFD0F8080508F0AABFD0F80805B1
:1053B80008F0A8BF9446D0F8C8021A4608B5634654
:1053C80004F09CFC032802D8024B185C08BD03209B
:1053D80008BD00BF3C380108D0F8C80208B504F081
:1053E8000FFD032802D8024B185C08BD032008BD36
:1053F8003C380108D0F8C80208B504F045FD032878
:1054080002D8024B185C08BD032008BD3C380108CF
:105418000A06D0F8C83206D401EBC10103EB8101BA
:1054280091F87E02704701F07F0101EBC10103EBA7
:10543800810191F83E007047D0F8C80208B504F021
:1054480047FC032802D8024B185C08BD032008BD9E
:105458003C380108D0F8C80208B504F0AFFC0328AE
:1054680002D8024B185C08BD032008BD3C3801086F
:10547800D0F8C80208B504F07FFC032802D8024B14
:10548800185C08BD032008BD3C380108D0F80003AB
:1054980009F036BAD0F8000309F04ABAD0F8000388
:1054A80009F052BA704700BFD0F8000309F038BAC3
:1054B800D0F8000309F038BAD0F8D40308B503F0DF
:1054C80045F9032802D8024B185C08BD022008BD24
:1054D80040380108024B027853F82200704700BF99
:1054E80064380108024B427833F81200704700BF55
:1054F800443801088CB00A2814D8DFE800F01523D6
:10550800313F4D5B6977859306004D4BD3F8E0201A
:1055180042F48062C3F8E020D3F8E03003F48063FB
:105528000B930B9B0CB07047454BD3F8E02042F02F
:105538000102C3F8E020D3F8E03003F0010301933F
:10554800019BEFE73E4BD3F8E02042F00202C3F89C
:10555800E020D3F8E03003F002030293029BE1E776
:10556800374BD3F8E02042F00402C3F8E020D3F828
:10557800E03003F004030393039BD3E7304BD3F8E5
:10558800E02042F00802C3F8E020D3F8E03003F04E
:1055980008030493049BC5E7294BD3F8E02042F0A5
:1055A8001002C3F8E020D3F8E03003F010030593AD
:1055B800059BB7E7224BD3F8E02042F02002C3F85E
:1055C800E020D3F8E03003F020030693069BA9E718
:1055D8001B4BD3F8E02042F04002C3F8E020D3F898
:1055E800E03003F040030793079B9BE7144BD3F885
:1055F800E02042F08002C3F8E020D3F8E03003F066
:1056080080030893089B8DE70D4BD3F8E02042F404
:105618008072C3F8E020D3F8E03003F48073099374
:10562800099B7FE7064BD3F8E02042F40072C3F8E9
:10563800E020D3F8E03003F400730A930A9B71E783
:1056480000440258704700BF0F4B1B780BB901206C
:10565800704710B504464FF47A700C4AB0FBF3F368
:105668001068B0FBF3F000F0F5FE0F2C00D808B17D
:10567800012010BD002221464FF0FF3000F08AFEC5
:10568800034B00201C6010BD540000244C00002473
:105698005800002410B50320124C00F069FE05F0F4
:1056A8008FFC114B11499A699B69C2F3032203F0DD
:1056B8000F038A5CCB5C02F01F020D4903F01F0345
:1056C800D04020FA03F308600E202360FFF7BCFFE8
:1056D80010B10124204610BD0446FFF7B3FF204651
:1056E80010BD00BF50000024004402582C380108A7
:1056F8004C000024034A044B11681B780B441360C8
:10570800704700BFBC19002454000024014B1868DE
:10571800704700BFBC19002438B50446FFF7F6FFF0
:105728000546631C02D0044B1B781C44FFF7EEFFB0
:10573800431BA342FAD338BD54000024014B186818
:10574800000C70470010005C704700BF806B08B504
:10575800FFF7FAFF08BD00BF836B5A6D12F0500FB8
:105768005A6D10B51DD1196842F400725A650A685D
:1057780012F0080FCA681BD012F4406F0DD1CA6826
:1057880094040AD45A6D22F480725A655A6DD10471
:1057980003D45A6D42F001025A651846FDF778FFA6
:1057A80010BDD2060AD4DB6CBDE81040DB6C18478C
:1057B8009007E7D01846FDF76BFFF1E71846FEF7AC
:1057C8000BF810BD806B08B5436D43F0400343658B
:1057D800836D43F004038365FDF7FEFF08BD00BF3A
:1057E800F0B5002283B0019290F85020012A00F011
:1057F800B880034601201A6883F85000946864074B
:1058080008D55A6D42F020025A65002283F85020CC
:1058180003B0F0BD0C68002CC0F2A180C4F31305DE
:10582800002D00F0978094FAA4F515B1B5FA85F526
:10583800A840A40ED5692843D0614D681F2002F105
:10584800300E04F01F04AE0905EA000C06F00C0641
:1058580000FA0CF704FA0CF456F80E0020EA0700D8
:10586800044346F80E409068400776D4956815F0D2
:10587800080555D10C6802F1140607208F684FEA15
:10588800D45CC4F304540CF0040C00FA04FE07FAC8
:1058980004F4B64F5CF8060020EA0E0020434CF8EA
:1058A8000600386800F07040B0F1805F00F0E880D2
:1058B800D068D668C70600F1EB80C6F3820648694F
:1058C800760000FA06F60F69042F7BD002F1600417
:1058D800086854F827C000F0F8400CF0004C40EA83
:1058E8000C00304344F82700487E0E69012854F81C
:1058F80026000CBF4FF00047002720F00040384337
:1059080044F826000C7E0869012C04D100F01F0021
:105918004FF400658540106920F4F0400543156197
:105928009068C40714D4CE680C6806F0180790482D
:10593800D2F8C050F840C4F31307204025EA070501
:105948002843C2F8C0008B48864257D0002C0BDB96
:1059580000205AE7A40EA0406CE79068E0E7A40E88
:105968006BE7022003B0F0BD83498A4200F0B6809D
:1059780001F580718A4200F0B180804D8048A968A5
:10598800806801F0E076C04300F00100002800F0D4
:10599800B4807C48844200F0FD807B48844200F05B
:1059A8001C817A488442D3D14902D1D474498A42AD
:1059B800CED1AA68002022F0E072324342F480027D
:1059C800AA6022E7106E0C6800F0F840A506B0EB5C
:1059D800846F79D0506E00F0F84085426FD0906E99
:1059E80000F0F840854274D0D06E00F0F84085424F
:1059F80096D1D06E20F00040D06691E7002F4ED0AF
:105A080094FAA4F5002D00F08C80B5FA85F00130E9
:105A180000F01F06092E40F28480B5FA85F580064D
:105A28000126013500F0F84094FAA4F405F01F05AA
:105A380006FA05F50543002C00F0DF80B4FA84F47B
:105A4800A0196FF01D0600F01F04032010FB04606E
:105A5800000540F000702843072402F11405C60D24
:105A6800C0F3045006F0040604FA00F7745924EA57
:105A780007048F6807FA00F0204370510C6865E747
:105A8800D6684869C6F38206760000FA06F61AE771
:105A98007608486906F0080600FA06F613E7A40E29
:105AA800013404F01F06092E2DD8A506012005F0A3
:105AB800F845B040054306EB46000005CBE7506EBD
:105AC80020F0004050668AE7106E20F00040106613
